:020000040001F9
:10C0000020C9002005C301000DC301000FC30100BA
:10C0100011C3010013C3010015C30100000000009B
:10C0200000000000000000000000000017C3010035
:10C0300019C30100000000001BC301001DC3010063
:10C040001FC301001FC301001FC301001FC3010064
:10C050001FC301001FC301004DC501001FC3010024
:10C060001FC301001FC301001FC301001FC3010044
:10C070001FC301001FC301001FC301001FC3010034
:10C080001FC3010025C901001FC301001FC3010018
:10C090001FC301001FC301001FC301001FC3010014
:10C0A0001FC301001FC301001FC301001FC3010004
:10C0B0001FC301001FC301000000000000000000BA
:10C0C0001FC301001FC301001FC301001FC30100E4
:10C0D00071C901001FC3010031C50100000000004B
:10C0E0000000000000000000000000000000000050
:10C0F0000000000000000000000000000000000040
:10C10000000000000000000000000000000000002F
:10C11000000000000000000000000000000000001F
:10C12000000000000000000000000000000000000F
:10C1300000000000000000000000000000000000FF
:10C1400000000000000000000000000000000000EF
:10C1500000000000000000000000000000000000DF
:10C1600000000000000000000000000000000000CF
:10C1700000000000000000000000000000000000BF
:10C1800000000000000000000000000000000000AF
:10C19000000000000000000000000000000000009F
:10C1A000000000000000000000000000000000008F
:10C1B000000000000000000000000000000000007F
:10C1C000000000000000000000000000000000006F
:10C1D000000000000000000000000000000000005F
:10C1E000000000000000000000000000000000004F
:10C1F000000000000000000000000000000000003F
:10C20000DFF80CD000F0B4F80048004761D5010019
:10C2100020C90020401E00BF00BF00BF00BF00BFFC
:10C2200000BF00BF00BF00BF00BF00BF00BF00BF16
:10C2300000BF00BF00BF00BF00BF00BF00BF00BF06
:10C2400000BF00BF00BF00BF00BF00BF00BF00BFF6
:10C2500000BF00BF00BF00BF00BF00BF00BF00BFE6
:10C2600000BF00BF00BF00BF00BF00BF00BF00BFD6
:10C2700000BF00BF00BF00BF00BF00BF00BF00BFC6
:10C2800000BF00BF00BFC5D170470000401E00BF07
:10C2900000BF00BF00BF00BF00BF00BF00BF00BFA6
:10C2A00000BF00BF00BF00BF00BF00BF00BF00BF96
:10C2B00000BF00BF00BF00BF00BF00BF00BF00BF86
:10C2C00000BF00BF00BF00BF00BF00BF00BF00BF76
:10C2D00000BF00BF00BF00BF00BF00BF00BF00BF66
:10C2E00000BF00BF00BF00BF00BF00BF00BF00BF56
:10C2F00000BF00BF00BF00BF00BF00BF00BFC5D16F
:10C30000704700000648804706480047FEE7FEE702
:10C31000FEE7FEE7FEE7FEE7FEE7FEE7FEE7FEE7F5
:10C3200001CA010001C2010040EA01039B0703D0DA
:10C3300009E008C9121F08C0042AFAD203E011F864
:10C34000013B00F8013B521EF9D27047D2B201E026
:10C3500000F8012B491EFBD270470022F6E710B50A
:10C3600013460A4604461946FFF7F0FF204610BD63
:10C37000064C074D06E0E06840F0010394E8070032
:10C3800098471034AC42F6D3FFF73EFF3CA40200BE
:10C390005CA4020010B5142001F082F905210B48BD
:10C3A00001F0A8FF0BE001F081FF044604F001005A
:10C3B00000B905E006480068401C05490860F2E73E
:10C3C00000BF142001F096F910BD000000300040BD
:10C3D000F42000202DE9F04F04460D469046DDE99B
:10C3E0000A7C099ED91703EB5171C910A3EBC10157
:10C3F00009B1BDE8F08F002155E000204BE01A465E
:10C400004FEAE37A03EB5A7A4FEAEA0A0AFB010A97
:10C4100016F80A9000223BE029FA02FA0AF0010A13
:10C42000BAF1000F19D000BF04EB010ABAF1500FA6
:10C4300012DA05EBC00A9244BAF1A00F0CDA05EB50
:10C44000C00B93440BEB8B0BDFF864E00EEB4B1B44
:10C4500004EB010E2BF81E7019E000BF04EB010A7B
:10C46000BAF1500F12DA05EBC00A9244BAF1A00FEC
:10C470000CDA05EBC00B93440BEB8B0BDFF830E0D1
:10C480000EEB4B1B04EB010E2BF81EC000BF521C21
:10C49000082AC1DB401C4FEAE37A03EB5A7AB0EB7F
:10C4A000EA0FACDB491C4145A7DB00BFA1E7000058
:10C4B0000C45002010B5142001F0F2F8B921034812
:10C4C00001F018FF142001F015F910BD00300040F4
:10C4D00010B5044600F034FD142001F0E1F82021ED
:10C4E0000B4801F007FFC4F30741094801F002FFC0
:10C4F000C4F30721064801F0FDFEE1B2044801F053
:10C50000F9FE142001F0F6F800F00CFD10BD00005B
:10C510000030004010B5142001F0C2F8AB210348F0
:10C5200001F0E8FE142001F0E5F810BD00300040F5
:10C530000549096801F1400000BFF1EE101A0168D9
:10C5400021F09F010160704738EF00E010B51C48F2
:10C55000006801280AD10020194908601948D0F85C
:10C56000000119480068401C174908601448001D64
:10C57000006801280ED100211148001D01600068EB
:10C5800002211248006801F039F911480068401C86
:10C590000F4908600A4808300068012804D10021CA
:10C5A000074808300160006805480C300068012821
:10C5B00004D1002102480C300160006810BD000069
:10C5C0000061004000600040E4200020D4200020F2
:10C5D000EC200020704710B5052001F083F8022000
:10C5E00000F0EEFF052001F053F8022000F0E8FF14
:10C5F000052001F077F8022000F0E2FF112000F0A2
:10C6000037FC052000F0DCFFB12000F031FC0120F8
:10C6100000F05AFC082000F057FC052000F054FC04
:10C62000B22000F025FC012000F04EFC082000F0B4
:10C630004BFC052000F048FCB32000F019FC012061
:10C6400000F042FC082000F03FFC052000F03CFC1C
:10C65000052000F039FC082000F036FC052000F031
:10C6600033FCB42000F004FC002000F02DFCC020BE
:10C6700000F0FEFB282000F027FC082000F024FC3E
:10C68000042000F021FCC12000F0F2FBC02000F0EB
:10C690001BFCC22000F0ECFB0D2000F015FC00207C
:10C6A00000F012FCC32000F0E3FB8D2000F00CFC36
:10C6B0002A2000F009FCC42000F0DAFB8D2000F0F5
:10C6C00003FCEE2000F000FCC52000F0D1FB1D2093
:10C6D00000F0FAFB362000F0CBFBC82000F0F4FBA2
:10C6E000E02000F0C5FB072000F0EEFB172000F073
:10C6F000EBFB0C2000F0E8FB152000F0E5FB2E2002
:10C7000000F0E2FB2A2000F0DFFB232000F0DCFB3E
:10C71000282000F0D9FB282000F0D6FB282000F0CC
:10C72000D3FB2E2000F0D0FB392000F0CDFB002001
:10C7300000F0CAFB032000F0C7FB022000F0C4FB9E
:10C74000102000F0C1FBE12000F092FB062000F079
:10C75000BBFB212000F0B8FB0D2000F0B5FB17203B
:10C7600000F0B2FB352000F0AFFB302000F0ACFB56
:10C770002A2000F0A9FB2D2000F0A6FB2C2000F0C1
:10C78000A3FB292000F0A0FB312000F09DFB3B2003
:10C7900000F09AFB002000F097FB022000F094FBD1
:10C7A000032000F091FB122000F08EFB3A2000F0F5
:10C7B0005FFB052000F088FB052000F001FFFFF77C
:10C7C00009FF10BD10B5FFF706FF012001490872EF
:10C7D00010BD00008020002010B500F003F8FFF726
:10C7E000FAFE10BD1CB50020009003230122114663
:10C7F00001901E2000F004FF1E2000F073FF0020B7
:10C8000000900323012211460190072000F0F8FE5A
:10C81000072000F067FF002000900323012211464B
:10C820000190062000F0ECFE062000F05BFF0020E7
:10C830001D49086048071C493039086006201A491C
:10C840004C390860072118484838016017481849D2
:10C850000860002014495439086000900323012225
:10C8600011460190184600F0CBFE032000F010FFA7
:10C87000002000900323012211460190052000F0C2
:10C88000BFFE052000F02EFF1A2400200090034672
:10C89000012211460190204600F0B2FE00BF1A208E
:10C8A00000F020FF1CBD000054450040520108006C
:10C8B0000843004000F01F0201219140024A430951
:10C8C00042F823107047000080E200E000F01F02F1
:10C8D00001219140024A430942F8231070470000A9
:10C8E00080E100E000F01F02012191404209920026
:10C8F00002F1E022C2F800117047000010B50028D4
:10C9000007DA4A07140E054A00F00F031B1FD45420
:10C9100003E04A07130E024A135410BD18ED00E05D
:10C9200000E400E010B50F48006801280DD1002098
:10C930000C4908600C480068401C0B490860012045
:10C9400001F00CFD01200949886006484038006864
:10C95000012806D100200349403908600A2000F070
:10C96000E7FF10BD4011014094200020001001405D
:10C9700006480068012807D10020044908600448DF
:10C9800000682830024908607047000000410240FA
:10C99000982000202DE9F04104460E461746142049
:10C9A00000F07EFE0B21114801F0A4FCC4F3074106
:10C9B0000E4801F09FFCC4F307210C4801F09AFCDB
:10C9C000E1B20A4801F096FCA521084801F092FC6A
:10C9D000002503E001F06AFC70556D1CBD42F9DBD7
:10C9E000142000F087FEBDE8F08100000030004018
:10C9F00001480249086070470090D00320210020C0
:10CA000010B500F015FC28B18E480088C0F3042052
:10CA10008D49086000F060FC10B18C488C49486773
:10CA200000F072FC30B18748E0380068C0F3423053
:10CA30008849086000F092FC28B18748006820F01F
:10CA400080708549086000F0A1FC48B1002083494E
:10CA500008604FF08041C1F810017E49091F08604D
:10CA600000F0BEFC18B103207A496431086000F080
:10CA7000CFFC68B105207A490860012078497831F7
:10CA8000086000207649083108603F20091F0860CF
:10CA900000F0D6FC002855D06A48E03000687149A3
:10CAA00008606848E4300068091D08606548E8309F
:10CAB0000068091D08606348EC300068091D0860C3
:10CAC0006048F0300068091D08605E48F430006876
:10CAD000091D08605B48F830006862492031086031
:10CAE0005848FC300068091D08605F480068091D4F
:10CAF00008605D48001D0068091D08605A4808303C
:10CB00000068091D086058480C300068091D08605D
:10CB1000554810300068534940310860524814307D
:10CB20000068091D0860504818300068091D086039
:10CB30004D481C300068091D08604B4820300068D3
:10CB4000091D086000F04AFB30B13E48CC3800684F
:10CB500000F04F004549086000F094FB40B14448A4
:10CB6000006800F0010018B16FF001004049086052
:10CB700039487438006840F47000374974390860E7
:10CB800000BF00BF00BFBFF34F8F00BF00BF00BF9B
:10CB900000BF00BF00BFBFF36F8F00BF00BF00BF6B
:10CBA0003448006800F0004028B93248001D006891
:10CBB00000F00040F0B301202F49086000BF2F486B
:10CBC00000680028FBD015202A49086000BF2B48C8
:10CBD00000680028FBD015212648001D016000BF19
:10CBE000264800680028FBD000202349086000BFC9
:10CBF000224800680028FBD000BF00BF00BF00BF74
:10CC000000BFBFF34F8F00BF00BF00BF1248F03816
:10CC1000006800F4E0601A490843001D0E49F0392D
:10CC2000086000BF00BF00BFBFF34F8F00BF00BF51
:10CC300000BF00E002E000BF00BFFDE7FFF7D8FE45
:10CC400010BD000024030010403501400DF0ADBAC6
:10CC500000C007403C050040FCED00E00C01004036
:10CC60001056004020C5004024040010E40E00408F
:10CC7000000400400012001004E5014000E40140FF
:10CC80000000FA05F8B5044600207549A4F1A00299
:10CC900040F2B1339A4204D800EB44000844A0F5B6
:10CCA000A070A4F50052103A40F232639A4207D8BD
:10CCB00040F2647000EB44000844A0F58040203846
:10CCC000A4F5405240F2D5339A4206D841F2CA3018
:10CCD00000EB44000844A0F5C040A4F59C4245F296
:10CCE000A5139A4206D841F6763000EB440008447A
:10CCF000A0F51C40A4F57E42303A3B2A06D84BF6FC
:10CD0000C26000EB4400574A084410446FF47F426D
:10CD100022445D2A07D84BF63A7000EB44000844E1
:10CD2000A0F5FF30801EA4F57F42E03A052A06D820
:10CD30004BF6F67000EB44004B4A08441044A4F54F
:10CD400079422C3AFD2A06D84CF2A00000EB4400B0
:10CD5000464A08441044A4F56842163A4E2A07D8B9
:10CD60004CF29C2000EB44000844A0F5E8302C383D
:10CD70006FF43A522244492A07D84CF23A3000EB79
:10CD800044000844A0F5BA400238A4F59242473A5C
:10CD9000702A07D84CF2CE3000EB44000844A0F5CE
:10CDA00012408E38A4F59842773AB2F59C7F07D2AC
:10CDB0004CF2B04000EB44000844A0F51840EE38B7
:10CDC000A4F55052473A40F699039A4207D84CF2DC
:10CDD000207000EB44000844A0F5D0408E38A4F544
:10CDE0008042563AB2F5E76F07D24DF6540000EB99
:10CDF00044000844A0F50040AC386A46022100F027
:10CE00006BFE9DF801009DF80010A4F5674200EB51
:10CE10000120A4F53C518D3AF039D61FA4F5F05508
:10CE200080B24EF296733F3D04D09C4205D14AF247
:10CE3000F36008E04AF6BC00F8BD0B2903D847F6BA
:10CE40009A10204480B2062A03D8A4F58040B43852
:10CE500080B2012EF0D8A4F58044A83CA0B2F8BD61
:10CE6000278C1600A003FEFF4000FEFFA80DFEFF6A
:10CE700010B50446032000F00BFC1E2000F008FC57
:10CE800000BF002001210E4A116000210D4A1160EF
:10CE90000B491C310C6000BF0A49096829B90146D9
:10CEA000401C41F288329142F6DB0021054A1160B4
:10CEB000034A116000BF1E2000F014FC10BD0000EA
:10CEC000004500400841004010B50446032000F032
:10CED00009FC1E2000F0DCFB00BF002001210F4AEE
:10CEE000116000210E4A11600C491C310C6000BF1A
:10CEF0000B49096829B90146401C41F28832914228
:10CF0000F6DB0021064A1160044A116000BF1E20B2
:10CF100000F0E8FB032000F0BBFB10BD0045004023
:10CF20000841004010B5142000F0BAFB042103486A
:10CF300001F0E0F9142000F0DDFB10BD00300040EE
:10CF400010B5142000F0ACFB0621034801F0D2F923
:10CF5000142000F0CFFB10BD003000402DE9F0415F
:10CF600004460E461746FFF7EBFF142000F098FB2F
:10CF70000221104801F0BEF9C4F307410D4801F049
:10CF8000B9F9C4F307210B4801F0B4F9E1B209483B
:10CF900001F0B0F9002504E0715D064801F0AAF93E
:10CFA0006D1CBD42F8DB142000F0A4FBFFF7BAFFB4
:10CFB000BDE8F08100300040EFF31080704780F34F
:10CFC0001088704702E008C8121F08C1002AFAD171
:10CFD00070477047002001E001C1121F002AFBD1F9
:10CFE00070470000F0B503220221104600231C46C2
:10CFF0001D461E4643EA440747EA800747EA0527DD
:10D0000047EA064C194F47F821C000BF00BF184936
:10D01000184801601848006840F002001749C1F83C
:10D02000040306200121002807DA4B071D0E144BCC
:10D0300000F00F04241F1D5503E04B071C0E114B7D
:10D040001C5400BF0620012181400F4B440943F8C6
:10D05000241000BF00BF0121814043099B0003F160
:10D06000E023C3F8001100BFF0BD0000000700502E
:10D0700001020200146500400463004000600040AB
:10D0800018ED00E000E400E080E200E02DE9F04768
:10D0900004460D464C48007A08B9BDE8F0872A20BE
:10D0A000FFF7E6FE0020FFF70FFF1820FFF70CFF49
:10D0B0000020FFF709FF6720FFF706FF2B20FFF78F
:10D0C000D7FE0020FFF700FFE0B2FFF7FDFE0020D3
:10D0D000FFF7FAFEE8B2FFF7F7FE2C20FFF7C8FED5
:10D0E00027465FE007EB8700384901EB40184FF017
:10D0F000000953E038F8026B1E2000F0C9FA032043
:10D1000000F0F0FA00BF00200121314A1160002137
:10D11000304A116031122E4A1C32116000BF2D4975
:10D12000096829B90146401C41F288329142F6DB78
:10D130000021284A1160264A116000BF032000F038
:10D14000A7FA1E2000F0CEFA1E2000F0A1FA03205C
:10D1500000F0C8FA00BF002001211D4A1160002123
:10D160001C4A1160F1B21A4A1C32116000BF194901
:10D17000096829B90146401C41F288329142F6DB28
:10D180000021144A1160124A116000BF032000F010
:10D190007FFA1E2000F0A6FA09F10109B9F1500F3B
:10D1A000A8DB7F1CAF429DDB0B48007848B98C2C74
:10D1B00007D1A02D05D12920FFF75AFE01200649ED
:10D1C000087000BF69E70000802000200C450020A7
:10D1D0000045004008410040F0200020134800783E
:10D1E000062820D11148001D007800F00F00D0B9AA
:10D1F0000E480830007800F0F000302801D10120FE
:10D2000070470A480830007800F0F000402801D14B
:10D210000120F5E705480830007800F0F0005028BC
:10D2200001D10120ECE70020EAE70000E00F00F068
:10D2300013480078062820D11148001D007800F01E
:10D240000F00D0B90E480830007800F0F000302808
:10D2500001D1012070470A480830007800F0F00042
:10D26000402801D10120F5E705480830007800F09A
:10D27000F000502801D10120ECE70020EAE700008F
:10D28000E00F00F013480078062820D11148001D57
:10D29000007800F00F00D0B90E480830007800F098
:10D2A000F000302801D1012070470A48083000788A
:10D2B00000F0F000402801D10120F5E705480830D2
:10D2C000007800F0F000502801D10120ECE70020A8
:10D2D000EAE70000E00F00F00A48007806280ED1C7
:10D2E0000848001D007800F00F0040B905480830DC
:10D2F000007800F0F000302801D1012070470020B4
:10D30000FCE70000E00F00F013480078062820D169
:10D310001148001D007800F00F00D0B90E48083009
:10D32000007800F0F000302801D1012070470A4851
:10D330000830007800F0F000402801D10120F5E726
:10D3400005480830007800F0F000502801D1012095
:10D35000ECE70020EAE70000E00F00F00A48007860
:10D3600006280ED10848001D007800F00F0040B9D3
:10D3700005480830007800F0F000302801D1012085
:10D3800070470020FCE70000E00F00F01348007831
:10D39000062820D11148001D007800F00F00D0B9F8
:10D3A0000E480830007800F0F000302801D101204C
:10D3B00070470A480830007800F0F000402801D19A
:10D3C0000120F5E705480830007800F0F00050280B
:10D3D00001D10120ECE70020EAE70000E00F00F0B7
:10D3E0000A48007806280ED10848001D007800F091
:10D3F0000F0040B905480830007800F0F0003028F0
:10D4000001D1012070470020FCE70000E00F00F090
:10D410000A48007806280ED10848001D007800F060
:10D420000F0040B905480830007800F0F0003028BF
:10D4300001D1012070470020FCE70000E00F00F060
:10D440000A48007806280ED10848001D007800F030
:10D450000F0040B905480830007800F0F00050286F
:10D4600001D1012070470020FCE70000E00F00F030
:10D470001CB50020009003230122114601900F20CB
:10D4800000F0D0F80F2000F035F9002000900323C1
:10D490000122114601900D2000F0C4F80D2000F08B
:10D4A00029F900200090034602460146019012200F
:10D4B00000F0B8F8002000900323012211460190EB
:10D4C000142000F0AFF8142000F014F91CBD10B5C2
:10D4D000FFF720F8012000F073F845F24A50FFF7FB
:10D4E000D1FB04464BF2A100844201D1012010BDC2
:10D4F0000020FCE710B5044604BB2820FFF7B8FC69
:10D500001020FFF7B5FC1A2000F0ECF800201149BC
:10D510000872032000F098F8062000F095F8072024
:10D5200000F092F8052000F08FF81E2000F08CF833
:10D53000002008494872084908700AE0FFF752F9CC
:10D540001A2000F0A5F84FF400310448006800F0FC
:10D5500055F910BD80200020F0200020A4200020DC
:10D5600001201449086026200621002807DA4A070E
:10D57000140E114A00F00F031B1FD45403E04A0796
:10D58000130E0E4A135400BF262000F01F02012183
:10D5900091404209920002F1E022C2F8001100BF5E
:10D5A00000F0B0F800F0BCF800F04AF900BF00F05D
:10D5B000D5F8FCE77805004018ED00E000E400E055
:10D5C00001B506E00098401E009040F2E730FEF7FB
:10D5D0005DFE00980028F5D108BD0000F0B5DDE93A
:10D5E000054541EA420646EA830646EA042646EA3B
:10D5F0000547024E46F82070F0BD000000070050BD
:10D60000F0B5DDE9054541EA420646EA830646EA09
:10D61000042646EA0547024E46F82070F0BD000099
:10D6200000070050F0B5DDE9054541EA420646EA4B
:10D63000830646EA042646EA0547024E46F820706D
:10D64000F0BD0000000700501CB50446002000900B
:10D6500003460122014601902046FFF7D1FF1CBD81
:10D6600001218140014A1160704700000C05005003
:10D6700001218140014A1160704700000C050050F3
:10D6800001218140014A1160704700000C050050E3
:10D6900001218140014A1160704700000C050050D3
:10D6A00001218140014A1160704700000C050050C3
:10D6B000014603480068C84000F0010070470000C0
:10D6C0001005005001218140014A1160704700009F
:10D6D0000805005001218140014A11607047000097
:10D6E0000805005001218140014A11607047000087
:10D6F0000805005001218140014A11607047000077
:10D700000805005010B50020034908604FF47071FF
:10D710000248FEF722FE10BD902000203421002098
:10D7200010B500240B480021016041608160C16098
:10D730002046641C01F05AF92046641C01F0C6F82A
:10D740002046641C00F06EFE2046641C01F0D0F8F8
:10D7500010BD00002421002020BF704770B50024B8
:10D76000002600BF214850F8240000B105E0601CED
:10D7700004461F4909688842F4D300BF1C4800686A
:10D7800084422BD200BFFFF717FC064672B600BFDB
:10D79000164850F824500020144941F8240000BFD6
:10D7A0003046FFF70CFC00BF124850F824202946F1
:10D7B00020469047054600BFFFF7FEFB064672B6BF
:10D7C00000BF0A4850F824002843084941F82400C3
:10D7D00000BF3046FFF7F3FB00BF05E006480068D6
:10D7E000012801D1FFF7B8FF70BD000024210020FF
:10D7F00008EC0100F8EB01008C20002070B5044615
:10D800000D460D480068844214D2002600BFFFF781
:10D81000D3FB064672B600BF084850F824002843E0
:10D82000064941F8240000BF3046FFF7C8FB00BF9F
:10D83000002070BD0120FCE708EC0100242100203D
:10D8400010B500F0EDF810BDF0B503460C461546D6
:10D85000002200BF00BFEFF31080024672B600BF87
:10D8600000211BE001EB4100304E06EBC000406898
:10D87000984212D101EB410006EBC00080682040C5
:10D8800058B101EB410006EBC000006928B901EB7B
:10D89000410006EBC000C56002E0491C2829E1D325
:10D8A00000BF28290AD200BF00BF82F3108800BF42
:10D8B00000BF01D30020F0BD1846FCE7002124E0A2
:10D8C00001EB4100194E06EBC0008068E0B901EBA6
:10D8D000410006EBC0000069B0B901EB410006EB66
:10D8E000C000436001EB410006EBC000846001EB27
:10D8F000410006EBC000C560012001EB41060B4F63
:10D9000007EBC606307502E0491C2829D8D300BFB2
:10D9100000BF00BF82F3108800BF00BF282902D3D8
:10D920004FF0FF30C7E71846C5E70000342100205C
:10D9300070B50546002464E004EB4400354901EB72
:10D94000C000007D00B95BE004EB4400314901EB0D
:10D95000C000C068A8420CD904EB440001EBC00031
:10D96000C068401B04EB44012A4A02EBC101C860B5
:10D9700045E0002004EB4401264A02EBC101C860E7
:10D9800004EB4400114601EBC0008068F0B104EBE9
:10D99000440001EBC00040681F4951F8200004EB2F
:10D9A000440102EBC1018968084304EB440102EB26
:10D9B000C1014968184A42F8210004EB4401154AA4
:10D9C00002EBC1001821FEF7C8FC18E004EB44008C
:10D9D000104901EBC000006970B1002004EB440164
:10D9E0000C4A02EBC101087504EB440002EBC000D5
:10D9F00001690020884702E000BF00BFFEE700BFCA
:10DA0000641C282C98D305480068401C0349086012
:10DA100070BD00003421002024210020902000202F
:10DA200010B500F003F800F051F810BD10B501205A
:10DA3000810708601F4908608107886000BF1E4891
:10DA4000006800F001000028F9D01120FEF73EFF29
:10DA500001201A4948602F20FEF7DCFB01201749FE
:10DA600088602F20FEF7D6FB002015490860134977
:10DA7000C1F8400140F24710124908604FF480306D
:10DA80001149086010494039086064200D49383157
:10DA9000086001200C4908600849C1F80403062108
:10DAA0001120FEF72BFF1120FEF704FF1120FEF7D7
:10DAB00019FF10BD18050040180400400010014077
:10DAC00000110140081501404413014001200149A3
:10DAD00008607047001001402DE9F04104460E46F1
:10DAE000174600251420FFF7DBFD03210E4800F048
:10DAF00001FCC4F307410C4800F0FCFBC4F3072110
:10DB0000094800F0F7FBE1B2074800F0F3FB00BF63
:10DB100003E000F0CBFB78556D1CB542F9D314201F
:10DB2000FFF7E8FDBDE8F081003000401FB5FD487B
:10DB3000007800287DD1FC480068642879D900204D
:10DB40004FF47841F94A1023CDE9002102901A469A
:10DB50004021FEF73FFC00214FF47842F34820308B
:10DB60001023CDE9012100901A4640211846FEF706
:10DB700031FC00214FF47842EC4840301023CDE9CD
:10DB8000012100901A4640212020FEF723FC0021AD
:10DB90004FF47842E54860301023CDE90121009030
:10DBA0001A4640213020FEF715FC00214FF4784240
:10DBB000DE4880301023CDE9012100901A46402133
:10DBC0000846FEF707FC00214FF47842D748A03002
:10DBD0001023CDE9012100901A4650210420FEF7C0
:10DBE000F9FB00214FF47842D048C0301023CDE932
:10DBF000012100901A4650211420FEF7EBFB002172
:10DC00004FF47842C948E0301023CDE9012100905B
:10DC10001A4650212420FEF7DDFB00214FF4784204
:10DC2000C3481023CDE9012100901A465021342029
:10DC300000E01CE0FEF7CEFB00214FF47842BC4828
:10DC40001023CDE9012100901A4650213C20FEF717
:10DC5000C1FB00214FF47842B5481023CDE90121E2
:10DC600000901A4650214420FEF7B4FB1FBDB14876
:10DC7000006818B1AF48006800287CD000204FF63B
:10DC8000FF71AD4A1023CDE9002102901A461946D2
:10DC9000FEF7A0FB00214FF6FF72A74820301023AB
:10DCA000CDE9012100901A4619461846FEF792FB6D
:10DCB00000214FF6FF72A1481023CDE90121009009
:10DCC000082219462020FEF785FB00214FF6FF723F
:10DCD0009A481023CDE901210090082219462820F6
:10DCE000FEF778FB00214FF6FF7294481023CDE930
:10DCF00001210090082219463020FEF76BFB904866
:10DD000000686421B0FBF1F08C49B03901EB0010E0
:10DD100000214FF6FF7203901023CDE901210090FE
:10DD2000082220210020FEF755FB854800680A21C3
:10DD3000B0FBF1F0B0FBF1F201FB12007F49B0390A
:10DD400001EB001000224FF6FF71039010238DE8C5
:10DD50000700082220211046FEF73CFB78480068A7
:10DD60000A21B0FBF1F201FB12007449B03901EB5A
:10DD70000010002100E061E04FF6FF7203901023D5
:10DD8000CDE901210090082220211846FEF722FB50
:10DD900000214FF6FF72694810381023CDE90121A8
:10DDA0000090082220211820FEF714FB6548006827
:10DDB0006421B0FBF1F06149B03901EB00100021A2
:10DDC0004FF6FF7203901023CDE901210090082245
:10DDD00020210846FEF7FEFA5A4800680A21B0FBE7
:10DDE000F1F0B0FBF1F201FB12005449B03901EB44
:10DDF000001000214FF6FF7203901023CDE901219E
:10DE00000090082220212820FEF7E4FA4D480068FF
:10DE10000A21B0FBF1F201FB12004849B03901EBD5
:10DE2000001000214FF6FF7203901023CDE901216D
:10DE30000090082220213020FEF7CCFA3D480068EF
:10DE4000012803D03B48006801287FD900214FF604
:10DE5000FF72394840301023CDE9012100901A4665
:10DE600030210020FEF7B6FA00214FF6FF7232484B
:10DE700060301023CDE9012100901A463021184668
:10DE8000FEF7A8FA00214FF6FF722C481023CDE9C7
:10DE900001210090082230212020FEF79BFA00216A
:10DEA0004FF6FF7225481023CDE90121009008228A
:10DEB00030212820FEF78EFA00214FF6FF721F480E
:10DEC0001023CDE901210090082230210846FEF7F9
:10DED00081FA1D4800686421B0FBF1F01749B039A0
:10DEE00001EB001000214FF6FF7203901023CDE9E3
:10DEF00001210090082240210020FEF76BFA124811
:10DF000000680A21B0FBF1F0B0FBF1F201FB120056
:10DF10000A49B03901EB001000214FF6FF7203905F
:10DF2000102314E0C8200020902000207BF901007D
:10DF30007BFA0100A82000207BF701006BF90100AB
:10DF4000B0200020AC200020B820002070E0CDE9F7
:10DF500001210090082240211046FEF73BFACC48F0
:10DF600000680A21B0FBF1F201FB1200C94901EB84
:10DF7000001000224FF6FF71039010238DE8070078
:10DF8000082240211846FEF725FA00214FF6FF72BD
:10DF9000C048A0301023CDE9012100900822402183
:10DFA0001820FEF717FABC4800686421B0FBF1F0B6
:10DFB000B84901EB001000214FF6FF7203901023C7
:10DFC000CDE901210090082240212020FEF702FA2D
:10DFD000B14800680A21B0FBF1F0B0FBF1F201FB9F
:10DFE0001200AC4901EB001000214FF6FF720390C4
:10DFF0001023CDE901210090082240212820FEF7BE
:10E00000E9F9A54800680A21B0FBF1F201FB120012
:10E01000A04901EB001000214FF6FF72039010237E
:10E02000CDE901210090082240213020FEF7D2F9ED
:10E030009A480068022803D09848006802287DD9D1
:10E0400000214FF6FF7296481023CDE90121009080
:10E050001A4650210020FEF7BDF900214FF6FF724D
:10E060008F4820301023CDE9012100901A4650211D
:10E070001846FEF7AFF900214FF6FF728548B03021
:10E080001023CDE901210090082250212020FEF725
:10E09000A1F900214FF6FF727E48B0301023CDE980
:10E0A00001210090082250212820FEF793F9002139
:10E0B0004FF6FF727748B0301023CDE90121009070
:10E0C000082250213020FEF785F976480068642147
:10E0D000B0FBF1F06F4901EB001000214FF6FF7229
:10E0E00003901023CDE90121009008226021002037
:10E0F000FEF770F96B4800680A21B0FBF1F0B0FB45
:10E10000F1F201FB1200634901EB001000214FF610
:10E11000FF7203901023CDE90121009008226021B5
:10E120001046FEF757F95F4800680A21B0FBF1F28C
:10E1300001FB1200574901EB001000E05FE00021F5
:10E140004FF6FF7203901023CDE9012100900822C1
:10E1500060211846FEF73EF900214FF6FF724D4848
:10E16000A0301023CDE90121009008226021182061
:10E17000FEF730F94C4800686421B0FBF1F04549E6
:10E1800001EB001000214FF6FF7203901023CDE940
:10E1900001210090082260212020FEF71BF942484F
:10E1A00000680A21B0FBF1F0B0FBF1F201FB1200B4
:10E1B000384901EB001000214FF6FF720390102345
:10E1C000CDE901210090082260212820FEF702F904
:10E1D000354800680A21B0FBF1F201FB12002D491D
:10E1E00001EB001000214FF6FF7203901023CDE9E0
:10E1F00001210090082260213020FEF7EBF827482B
:10E200000068032803D02548006803283ED9254824
:10E2100000682549096888421CD100214FF4FC623E
:10E220001F4840301023CDE9012100901A4670218B
:10E230000020FEF7CFF800214FF4FC621848603050
:10E240001023CDE9012100901A4670211846FEF7EF
:10E25000C1F81BE000214FF47842114880301023B0
:10E26000CDE9012100901A4670210020FEF7B2F896
:10E2700000214FF478420A48A0301023CDE9012153
:10E2800000901A4670211846FEF7A4F800BFEDE48E
:10E29000B8200020BBF80100B4200020A8200020F6
:10E2A000FBF70100C0200020BC20002070B5002436
:10E2B000002519E00D20FFF70DFA6006040E00BFDF
:10E2C00000BF00BF00BF122009490968C14001F02A
:10E2D000010109B144F001040D20FFF7D1F900BF9D
:10E2E00000BF00BF00BF6D1C082DE3DB204670BDE2
:10E2F0001005005070B506460C4600251EE004F0DF
:10E30000800018B10F20FFF7E5F902E00F20FFF7BA
:10E31000B7F900BF00BF00BF00BF0D20FFF7DAF95B
:10E320006006040E00BF00BF00BF00BF0D20FFF756
:10E33000A7F900BF00BF00BF00BF6D1C082DDEDBCA
:10E340000F20FFF7C7F970BD10B501210248006822
:10E35000FFF754FA10BD0000E0200020704770B5B0
:10E3600005460C4604F0010040B114210020FEF7E0
:10E370008DFE44F0020484F0010070BD04F0020040
:10E3800040B128211420FEF781FE44F0040484F0FB
:10E390000200F2E704F0040040B13C212820FEF71F
:10E3A00075FE44F0080484F00400E6E704F0080079
:10E3B00040B150213C20FEF769FE44F0100484F087
:10E3C0000800DAE704F0100040B164215020FEF7A5
:10E3D0005DFE44F0200484F01000CEE704F020003D
:10E3E00040B178216420FEF751FE44F0400484F0EF
:10E3F0002000C2E704F0400040B18C217820FEF7F5
:10E4000045FE44F0800484F04000B6E704F080004C
:10E4100030B1A0218C20FEF739FE84F08000ACE7FB
:10E420000020AAE70149086070470000E0200020B2
:10E430002DE9FC4106460C4604F0100080B1022094
:10E44000FE49096801EB4101FD4A02EBC101486048
:10E4500002213046FFF7D2F984F01000BDE8FC81BC
:10E4600004F02000C0B1F548006800EB4000F4491A
:10E4700001EBC000406840F00400F049096801EB7E
:10E480004101EF4A02EBC101486002213046FFF72B
:10E49000B5F984F02000E1E704F04000C0B1E7489E
:10E4A000006800EB4000E64901EBC000406840F026
:10E4B0001000E249096801EB4101E14A02EBC101A8
:10E4C000486002213046FFF799F984F04000C5E723
:10E4D00004F08000C0B1D948006800EB4000D84982
:10E4E00001EBC000406840F00800D449096801EB26
:10E4F0004101D34A02EBC101486002213046FFF7D7
:10E500007DF984F08000A9E704F00200A8B3CB48AD
:10E51000006800EB4000CA4901EBC000456827E0F5
:10E52000C648006800EB4000C54901EBC000C76861
:10E53000C248006800EB400001EBC000D0F8088042
:10E54000BE48006800EB400001EBC0003B4642467D
:10E550002946D0F814C0B9480068E0470546B748D6
:10E56000006800EB4000B64901EBC000456000BF09
:10E57000002DD5D184F0020070E7FFE704F40030ED
:10E5800020B1FEF71FF984F4003067E704F00100C2
:10E5900060B302213046FFF731F9002000900323D9
:10E5A0000122114601900C20FFF718F80C20FFF70C
:10E5B0005FF80020009003230122114601900820FB
:10E5C000FFF70CF80820FFF77DF8FEF70BFDFEF7CC
:10E5D00003F9FEF74DFFFDF76DFFC8224FF4000170
:10E5E0003046FFF731F984F0010037E704F400000A
:10E5F000B0B12020934908600020934908609349F6
:10E600000860FEF764FF9249087008460078012808
:10E6100003D101053046FFF7F1F884F400001DE74F
:10E6200004F4801068B3884909684FF4001202EBC3
:10E630000130FDF74DFFFDF7ADFE83480068401C3B
:10E64000814908607F490968884205D24FF48011EA
:10E650003046FFF7D3F811E006207E49086000201D
:10E660007D49086001207949086000207B490860E5
:10E6700064224FF400113046FFF7E6F884F480106E
:10E68000ECE604F40010A8B37348006800EB8000C7
:10E69000734901EB80004068FF3020F0FF056E48B1
:10E6A00000686C49096888421BD2E91705EB1161C3
:10E6B0006A4A1268B2EB212F05D24FF080713046C2
:10E6C000FFF79CF813E00020644908606248006886
:10E6D000401C614908604FF400113046FFF78EF886
:10E6E00005E0C8224FF480013046FFF7ADF884F40E
:10E6F0000010B3E6FFE704F0807078B35648006876
:10E7000000EB8000564A02EB800002695348006823
:10E7100002EB00214FF480725248FDF705FE4E498E
:10E72000096801EB81014E4A52F821204B490968E2
:10E7300002EB01204FF480724A49FEF70FFCFDF70F
:10E7400029FE4FF400113046FFF758F8434800689F
:10E75000401C4249086084F080707FE6FFE704F4C3
:10E760008000002868D0002004E000213E4A42F8E2
:10E770002010401C0628F8DB0220344908600620DF
:10E780003A49086000203A490860086045E0384886
:10E79000006800EB8000324901EB800045684FF4CF
:10E7A00000513048FDF7D9FD3149096801EB81017D
:10E7B0002B4A52F821002A462A49FEF7EBF800209E
:10E7C0002C49086020E02A48006800EB80002449BA
:10E7D00001EB8000006927490968415C2148254A0E
:10E7E0001268805C81420AD01F482149096850F8AC
:10E7F0002100401C1C491E4A126841F822001D4895
:10E800000068401C1B4908601A480068A842DADB0F
:10E8100017480068401C16490860154800681349ED
:10E8200009688842B3D3032008490860104800688B
:10E830000E49096888421FE028E0000014210020EA
:10E84000FC200020AC200020B0200020A8200020C8
:10E85000C8200020B4200020B8200020C4200020C0
:10E86000F4FA01000C250020F4240020BC20002034
:10E87000C0200020CC20002005D064224FF480016D
:10E880003046FEF7E1FF84F48000E7E504F0007015
:10E89000C0B132224FF000713046FEF7D5FF0A4872
:10E8A00001780078401C084A107001F0010018B18E
:10E8B0001220FEF707FF02E01220FEF7D9FE84F0D7
:10E8C0000070CBE50020C9E5D020002010B504463B
:10E8D0000448046000F046F9C82201212046FEF7F2
:10E8E000B3FF10BDA42000200246002070470000A6
:10E8F0002DE9F04104460E48046000BF19200121B3
:10E900000A4600252B462E4641EA420747EA85077C
:10E9100047EA032747EA064C064F47F820C000BFE6
:10E9200000BF00BFFEF79CFE00BF00BFBDE8F08146
:10E930009C2000200007005070B505460C4604F0EE
:10E940000100A8B30220FEF7B3FEE0B92348006837
:10E95000401C224908600020214908801F480068A7
:10E96000182807D940211F480068FEF747FF84F0A8
:10E97000010070BD322201212846FEF765FF01200B
:10E980001949087011E015480068182805D9402178
:10E9900014480068FEF732FF04E0202111480068A7
:10E9A000FEF72CFF00201049087084F00100E0E71A
:10E9B000FFE704F0020070B10220FEF779FE38B9DB
:10E9C000012211462846FEF73FFF00200349086058
:10E9D00084F00200CDE70020CBE70000DC2000201F
:10E9E00018210020A4200020D82000200149086020
:10E9F00070470000D42000202DE9F04106460C4667
:10EA00001746984604F0010058B100204C49088090
:10EA100010214C480068FEF7F1FE84F00100BDE8CB
:10EA2000F08104F0020088B345480088401C444946
:10EA3000088008460088032804DD00204249087049
:10EA4000424908703E480088B0F5FA7F05DD002095
:10EA5000FEF750FD84F00200E1E74FF4C8413C4866
:10EA6000FDF77BFCFFF762F83A48007A10B9012005
:10EA7000FEF740FDFFF768FC4FF4FA7210213148B1
:10EA80000068FEF7E1FE84F00200C8E7FFE704F04B
:10EA9000040068B100202A4908802E48007A20B975
:10EAA000102128480068FEF7A9FE84F00400B6E7AC
:10EAB00004F0100078B10020214908802548007A30
:10EAC00020B944F0020484F01000A8E744F00204E6
:10EAD00084F01000A3E704F00800C8B11E480068E5
:10EAE00000F07CF81D480068401E1B49086008467D
:10EAF000006800EB40001A4901EBC00000231A46F1
:10EB00000121456914480068A84784F0080086E799
:10EB100004F0200088B1104800F046F80E48006864
:10EB200000EB40000E4901EBC00000231A46012112
:10EB3000456909480068A84771E700206FE70000B1
:10EB400018210020A4200020F9200020F820002017
:10EB50000C4500208020002014210020DCFA010058
:10EB6000FC20002000200B4908600B4908800B495D
:10EB700008700B480021016041608160C160012084
:10EB80000449096801EB4101064A02EBC1014860F2
:10EB90007047000014210020182100201A210020B5
:10EBA0000CA90020FC20002001460A48007800281B
:10EBB0000BDD08480078401EC0B2064A1070064AB5
:10EBC00052F8200008600020704700200860401EB6
:10EBD000FAE700001A2100200CA9002004490A7855
:10EBE0000978491C024B1970024941F8220070470C
:10EBF0001A2100200CA9002039E9010031E40100AC
:10EC00005FE30100E9E8010004000000E0E0E0004B
:10EC100000000000C003381C08100810081008107D
:10EC20000810081008100810081008100810081024
:10EC30000810081008100810F81FC003381C08102E
:10EC40000810081008100810081008100810081004
:10EC500008100810E817E817E817E8170810F81F59
:10EC6000C003381C081008100810081008100810FD
:10EC7000E817E817E817E8170810E817E817E81783
:10EC8000E8170810F81FC003381C0810E817E81729
:10EC9000E817E8170810E817E817E817E81708104A
:10ECA000E817E817E817E8170810F81F0000100425
:10ECB00020024001FE7F824044212812100C0000F7
:10ECC0002002C8091004E4130808F007000000003F
:10ECD0000000100420024001FE7F824044212812DF
:10ECE000100C000000000000000000000000000008
:10ECF00000000000000000000000F00808110811EA
:10ED00000811100E0000F80F001000100010001085
:10ED1000F80F0000F81F3000C0000003000CF81FBF
:10ED2000000000000000000000000000F81F1000BC
:10ED30002000C01F20001000F81F0000E00710088E
:10ED40000810081008101008E0070000F81F100055
:10ED50006000800100060008F81F000000000000AD
:10ED60000000000008000800F81F0800080000006C
:10ED7000F80F0010001000100010F80F0000F81F2E
:10ED8000881088108810881088100000000000008B
:10ED9000000000000000F81F00080004F803000451
:10EDA0000008F81F0000F81F8810881088108810CD
:10EDB0000000F81F0810081008101008E0070000F5
:10EDC0000000000000000000000000000800080033
:10EDD000F81F080008000000F81F80008000800075
:10EDE0008000F81F0000F80F001000100010001045
:10EDF000F80F00000000000000000000000000000C
:10EE000000000000F81F88008800880088000000CB
:10EE1000F81F8800880088008800701F000000002C
:10EE2000F81F0000000000000000000000000000CB
:10EE30000000000000007008881088108810100F73
:10EE40000000C01FA000900088009000A000C01F1C
:10EE500008000800F81F080008000000000000007B
:10EE6000000000000000000000180020002000202A
:10EE7000FC1F00008018402440224012803F0020E8
:10EE80000000803F400040004000803F0000000044
:10EE9000000000000000000000000000F81F8800D3
:10EEA0008800880088000000C00F20112011201168
:10EEB000C00D0000F80F4010201020104010800FEF
:10EEC0000000000000000000000000000000F81F2B
:10EED0001000E000000700180007E0001000F81F15
:10EEE0000000400E201120112011C00F0010000062
:10EEF000E01F4000200000000000000000000000B3
:10EF0000000000008007F8010E010E01F8018007E3
:10EF100000000000E03F100410041004E0030000B3
:10EF20000000F00F200010000000000000000000B2
:10EF300000000000FE0F0400F8008003000C8003B6
:10EF400078000400FE0F0000200790089008900849
:10EF5000E00700087000C021001E0003E000100060
:10EF60000000000000000000000000180020002049
:10EF70000020FC1F00000000C01F00200020002017
:10EF8000C01F00000000803F400040004000803F64
:10EF90000000000000000000000000000000000071
:10EFA00000000018002000200020FC1F00000000CE
:10EFB000C01F002000200020C01F00000000FC3FF8
:10EFC0000000000000000000000000000000000041
:10EFD0000000000EE00338010E013801E003000ECE
:10EFE0000000F007000800080008F007000000001B
:10EFF000E013102410241024E01F00000000000083
:10F0000000003C0642084208420842088C07000003
:10F010000000E007900890089008E0040000E03F3E
:10F02000100410041004E00300001000FC07100896
:10F03000100800000000000000000000F00F0810A1
:10F040000420042004200810F00F0000C01F20201E
:10F0500020202020C01800002000F81F20200000E1
:10F06000000000000000000000000000FC3F08005D
:10F0700070008003000E0010FC3F00000000C01F65
:10F08000202020202020C01F000000006000800FF2
:10F090000030800F60000000000000000000000051
:10F0A0000000F81F08100810081008101008E007EA
:10F0B0000000C00F201120112011C0090000C00F56
:10F0C0002010201020104008000000000000000068
:10F0D0000000F00F100810081008100810081008A1
:10F0E0001008100810081008100810081008700EFA
:10F0F000C003000000000000F00F1008D00BD00B80
:10F10000D00B10081008100810081008100810087C
:10F1100010081008700EC003000000000000F00F7F
:10F120001008D00BD00BD00B1008D00BD00BD00B8D
:10F1300010081008100810081008700EC003000016
:10F1400000000000F00F1008D00BD00BD00B1008FF
:10F15000D00BD00BD00B1008D00BD00BD00B10085D
:10F16000700EC00300000000FFFFBFFB7FFD0FE03B
:10F17000EFEE5FF5BFFBFFFEBFFB7FFCDFF73FF865
:10F18000FFFFFFFFFFFFBFFB7FFD0FE0EFEE5FF52F
:10F19000BFFBFFFFFFFFFFFFF0000C0304020402B0
:10F1A0000803F0000000000008020802FC0300024F
:10F1B0000002000000001803840244022402180226
:10F1C000000000000801040224022402D80100000B
:10F1D0004000A00090008800FC03800200000000B6
:10F1E0003C01240224022402C4010000F001480270
:10F1F000240224022402CC01000000000C000400C0
:10F20000E40314000C000000D8012402240244028C
:10F2100064029801000038034402440244022401BD
:10F22000F80000000402FC0324022400740004001F
:10F230000800200020002000200020002000000006
:10F24000F00008030402040204020C01000004029E
:10F25000FC03200220002002C00300020000200264
:10F260002002E4030002000200002008E00F200A50
:10F2700020022002C00100000402FC032402240238
:10F2800074020C03000020022002E003400220026E
:10F290002000000020022002E003400220022000A3
:10F2A00000000000C001200220022002C001000076
:10F2B00020022002E0034002200220000000F000B3
:10F2C0000801040204024402CC0140002000200096
:10F2D000200020002000200000000000180324026D
:10F2E00024024402CC0100000000C001A002A002E0
:10F2F000A002C00200002002E00340022000200221
:10F30000C003000200006003A002A002A0022003CC
:10F3100000000000C001200220022002C001000005
:10F3200020022002E0034002200220000000F00042
:10F330000803040204020C03F00000000402FC03B2
:10F34000240274009C020C0304020402FC03240245
:10F3500020002402FC0304020402FC0324026400D3
:10F36000A40018030002001818000000181800007C
:10F370000018180000000101010101010101010153
:10F38000010101010101010101010101010101016D
:10F39000010101010101010101010101010101015D
:10F3A000010101010101010101010101010101014D
:10F3B000010101010101010101010101010101013D
:10F3C000010101010101010101010101010101012D
:10F3D000010101010101200010E0FF1FE0FF1F20DB
:10F3E0001010201000207C00607C00E001008001F3
:10F3F0000000000000E00700F80F001C18000410D7
:10F40000000410001C1C00F80F00E00300041000B2
:10F41000FC1F00FC1F000810000C00000400000C82
:10F420001000FC1F00F81F00000000040000040092
:10F43000C0FF0FC0FF1F00041000041800000800E8
:10F44000000000FE0180FF07C0010E6000182000D0
:10F4500010200010604010E0C11FE0C10F0000004C
:10F4600080071FC00F1F6018182010102030106078
:10F470006018E0E10FE0810700000000F00700F8ED
:10F480000F004C1C004410004410004C1800781C65
:10F4900000700400041000FC1F00FC1F0008100096
:10F4A0000C00000400000C1000FC1F00F81F0004FA
:10F4B0001000041000FC1F00FC1F001810000C10AE
:10F4C000000400000C00000C00200010E0FF1FE012
:10F4D000FF1F201010201010601810E03F18C0E728
:10F4E0000F00C00700000000180F00DC1F00C41848
:10F4F00000641000241800FC1F00F81F0000180012
:10F500000000000400000400C0FF0FC0FF1F000443
:10F5100010000418000008000000000000000400B3
:10F52000000400C0FF0FC0FF1F00041000041800FB
:10F530000008000000200010E0FF1FE0FF1F201067
:10F5400010001000201010E0FF1FE0FF1F2000102F
:10F55000200010E0FF1FE0FF1F201010207000604F
:10F56000F803E08F1FC0071C00001000000000001F
:10F5700000000000800100800700001F00007800EC
:10F5800000F00100800300800300C00100E00000E3
:10F590007000001800000E00000700800300C0018A
:10F5A00000C00000700000300000100000000000EB
:10F5B000000000000000000000000000000000004B
:10F5C0000000000001608001C0C0008041000033E5
:10F5D00000001600000C00001C0000160000630074
:10F5E00080410080C000C080016000010000000078
:10F5F000000000000000000000000010021C020CCF
:10F600000224022402244225C227FFA67FE40264CA
:10F61000022402040214021C020C0200400070FCCE
:10F620003FFC1F2413A413E4127D12BFFFA6FF2486
:10F63000122412241224122410041040004000420C
:10F6400000CE7FCC7F4030401040004000FFFFFFE5
:10F65000FF4000400040004000400040804090409B
:10F66000987CCE7C4640404060FF2FFF3F441044D2
:10F6700018440C440644024000400000000000F81A
:10F680001FF81F880888088808FF7FFFFF88888880
:10F69000888888F89FF89F00F000F01004700462DA
:10F6A0007ECE7FCC018000FC3FFC7F6040FF4FFF9F
:10F6B0004F1844F847F84700780078040004808425
:10F6C00080C4C0E470BC3F9D0F87008600847FA487
:10F6D000FFE480C48184F104F0040000000000F81D
:10F6E0001FF81F880888088808FF7FFFFF88888820
:10F6F000888888F89FF89F00F000F00010001C80B8
:10F700000F80030000E03FE27F06401C40184000ED
:10F710004000784078C001800F000E00081409B442
:10F7200009E40864093409BD09EFFD66FDB40994D4
:10F730000B440BE408B409140900080000C007E0FA
:10F740000FF01F3018183008200820082008200863
:10F750002018303018F01FE00FC007000008200804
:10F7600020F83FF83FF83F08218821C003C0076810
:10F770002F383E183C183808300820104210C2FFBD
:10F78000FFFF7F9009DC4DFC6FB42BE58BE7FAF6A9
:10F79000FAF40BA42BF46E7C4C0C080000FEFFFE68
:10F7A000FF7A0CDE2FA637301D384D2CC1E7FFE75E
:10F7B0007F2C05380D30392031200008080E0886CE
:10F7C00009FA097A09220922092209220922492271
:10F7D000C922C1227F2A3F0E000600008000C0001F
:10F7E000600030001C010FE303FE00FC00E003009A
:10F7F0000F003C007000C00080008010041007D093
:10F8000003FFFFFFFF90019081C88068C3296F0F3D
:10F810003C0E3C286F68C3C88088800208FA18FA3A
:10F820005882CCFEC4FE7FC07F6044705C5C594F40
:10F830004F4F6E5C78705F60474040408042C0CE62
:10F840007FCC7F00C0E2FFE2FF2A892A89FABFFA53
:10F85000BF2EA926E9E2FFE0BF0080400040404201
:10F8600060CE3FCC3F08604840C841884108480806
:10F8700058FF5FFF4F0840084008400081408170FA
:10F88000C13E611E31101D100FFF03FF03100F104A
:10F890001D1031106110C1008100810080FEC7FE83
:10F8A00077FA3FFA1FFE77FEE760C0F861DF37178F
:10F8B0001E101EF037F06110C010800000E00FF045
:10F8C0001F183008201830F01FE00F000010201023
:10F8D00020F83FF83F002000200000000070307842
:10F8E00038082C08268823F831703000003018388A
:10F8F0003888208820C831781F300E00000007C0EB
:10F9000007E0243024F83FF83F00240000F819F8FD
:10F9100039882188208831081F080E0000E00FF088
:10F920001F983188209831181F000E0000380038C9
:10F9300000083FC83FF800380008000000701CF8BD
:10F940003E882308218823F83E701C0000E000F068
:10F9500031183308221833F01FE00F000000600058
:10F9600078001E8007E00178001C000000003000D5
:10F97000300030000000000000000080208020885F
:10F98000308818880C88068803FFFFFFFF880388EB
:10F9900006880C881888308020802010041007D03A
:10F9A00003FFFFFFFFD0417045705C5C594F4F4F24
:10F9B0006E5C78705F6047404040401004700462A5
:10F9C0007E8E7F8C81FEC7FE77F23FF21FFE37FEF0
:10F9D00027F847F8C7FFFFFF7F0000424062C4726C
:10F9E000C45A44CE7FC67F52247224E224C220F837
:10F9F0000FF84F00C0FFFFFF7F000010021C020C39
:10FA00000224022402244225C227FFA67FE40264C6
:10FA1000022402040214021C020C0200400070FCCA
:10FA20003FFC1F2413A413E4127D12BFFFA6FF2482
:10FA30001224122412241224100410041004180496
:10FA40000E04061F001F3F247F6440C44084401FF3
:10FA5000401F7004710403040E040C0000008000B9
:10FA6000E0FE7FFE1F20022002200220023F023F14
:10FA7000FE20FE20002000200000000000003000DA
:10FA80003000300000000000000000000000000016
:10FA90000000000000000000000000000000300036
:10FAA00030003000000000000000000000000000F6
:10FAB0000000000000000000000000000000300016
:10FAC00030003000000000000000000000000000D6
:10FAD0000000000000000000000000000100000025
:10FAE00000000101020203030404050906080707D8
:10FAF0000905000000F02000001B000012000000BB
:10FB0000480030003C89020000102100D01D000098
:10FB100012000000350048006C6B0200003021002C
:10FB2000D01D000012000000350048009C4D02006E
:10FB300000502100C0150000120000003A00300003
:10FB4000DC370200007021000020000012000000DD
:10FB500040004000DC17020000E02100701C0000A3
:10FB600012000000410038006CFB010000000000A2
:10FB70000000000000000000000000000000000085
:10FB80000000000000000000000000000000000075
:10FB90000000000000000000000000000000000065
:10FBA0000000000000000000000000000000000055
:10FBB0000000000000000000000000000000000045
:10FBC0000000000000000000000000000000000035
:10FBD0000000000000000000000000000000000025
:10FBE0000000000000000000000000000000000015
:10FBF0000000000000000000000000000000000005
:10FC0000000000000000080040007801A001C001D1
:10FC1000D001D801D802B8019001580010000000AE
:10FC200000000000000000000000000000000000D4
:10FC300000000000000000000000000000000000C4
:10FC4000100058009001B801D002D802D001C001C4
:10FC5000A001700140000000000000000000000052
:10FC60000000000000000000000000000000000094
:10FC70000000000000000000000000000000000084
:10FC80000000000028008001C801D001D001D0018F
:10FC9000D801D801D802D802D802D802D802D80296
:10FCA00090012000000000000000000000000000A3
:10FCB0000000000000000000000000000000200024
:10FCC0009001D802E002D802D802D802D802D802A5
:10FCD000D801D801D801D001C8018001200000005E
:10FCE0000000000000000000000000000000000014
:10FCF0000000000000000000000000000000000004
:10FD0000000010008801D001D001D001D001D00145
:10FD1000D843E1C8EACBEB6EEB8EEB4DEA4AE0C587
:10FD2000E002E002E00270010000000000000000BC
:10FD30000000000000000000000000000000700152
:10FD4000E002E002E002E167EAABEB6EEB8EEB2D46
:10FD5000EA4AE126D802D801D801D001D001D00169
:10FD600088011000000000000000000000000000FA
:10FD70000000000000000000000000000000000083
:10FD800000003800C001D001D001D001D042EC9178
:10FD9000FF1AFF9DFF9CFF7BFF7BFF7BFF9CFFBD4E
:10FDA000FFDFFF7DF4B2E043E002B001100000008D
:10FDB0000000000000000000000000001000B00182
:10FDC000E002E967FDF7FFDEFFDEFFBDFF7CFF7BA2
:10FDD000FF7BFF7BFF9CFF7CF638E26AD801D001F5
:10FDE000D001D001C0013800000000000000000078
:10FDF0000000000000000000000000000000000003
:10FE000000005800C801D001D001D001EC2FFED96C
:10FE1000FEF8FED7FED7FED7FED7FED7FED7FED719
:10FE2000FED7FED8FF3AFF9DFF7CF38EE002C002B2
:10FE30001800000000000000000000001800C002D0
:10FE4000E043F554FFBEFF7CFF19FED7FED7FED777
:10FE5000FED7FED7FED7FED7FED7FED7FF19F5F6A1
:10FE6000E1C8D001D001D001C80158000000000055
:10FE70000000000000000000000000000000000082
:10FE800000005800C801C801D001D062F593FE9669
:10FE9000FE96FE96FE96FE96FE96FE96FE96FE96C2
:10FEA000FE96FE96FE96FE96FE96FEF9FF5CFDD649
:10FEB000E042C00210000000000000001000C0027C
:10FEC000E925FED9FF5BFED7FE96FE96FE96FE96CE
:10FED000FE96FE96FE96FE96FE96FE96FE96FE9682
:10FEE000FE96FE76EB4CD001D001D001D00150003F
:10FEF0000000000000000000000000000000000002
:10FF000000003800C801C801D001D0A3F591FE540B
:10FF1000FE54FE54FE54FE54FE54FE54FE54FE5451
:10FF2000FE54FE54FE54FE54FE54FE54FE54FE7520
:10FF3000FEF9FE36E8A3A021000000000000A02189
:10FF4000E925FEB8FED8FE55FE54FE54FE54FE547C
:10FF5000FE54FE54FE54FE54FE54FE54FE54FE5411
:10FF6000FE54FE54FE54FE55E32BD001D001D001C7
:10FF7000C801380000000000000000000000000080
:10FF800000001000B801C801C801D042F530FE13CE
:10FF9000FE13FE13FE13FE13FE13FE13FE13FE13D9
:10FFA000FE13FE13FE13FE13FE13FE13FE13FE13C9
:10FFB000FE13FE13FE76F5F4E0637821000078214D
:10FFC000E8C4F635FE56FE13FE13FE13FE13FE13B1
:10FFD000FE13FE13FE13FE13FE13FE13FE13FE1399
:10FFE000FE13FE13FE13FE13FE13FE13E2CAD0012E
:10FFF000D001D001B8011000000000000000000096
:020000040002F8
:10000000000000007800C801C801D001EC2DF5D235
:10001000F5D2F5D2F5D2F5D2F5D2F5D2F5D2F5D2A8
:10002000F5D2F5D2F5D2F5D2F5D2F5D2F5D2F5D298
:10003000F5D2F5D2F5D2F5D2F5D3F4F0E062E06274
:10004000E062F531F5D3F5D2F5D2F5D2F5D2F5D29D
:10005000F5D2F5D2F5D2F5D2F5D2F5D2F5D2F5D268
:10006000F5D2F5D2F5D2F5D2F5D2F5D2F5D2F5D258
:10007000D986D001D001C80178000000000000003E
:10008000000000001800C801C801C801D924F550BB
:10009000F591F591F591F591F591F591F591F59130
:1000A000F591F591F591F591F591F591F591F59120
:1000B000F591F591F591F591F591F591F591EB4B60
:1000C000E062EB4BF591F591F591F591F591F59194
:1000D000F591F591F591F591F591F591F591F591F0
:1000E000F591F591F591F591F591F591F591F591E0
:1000F000F591F4CFD001D001D001C8011800000063
:100100000000000000007000C801C801D001EB0829
:10011000F52FF54FF54FF54FF54FF54FF54FF54FDF
:10012000F54FF54FF54FF54FF54FF54FF54FF54FAF
:10013000F54FF54FF54FF54FF54FF54FF54FF54F9F
:10014000F52FF44DF52FF54FF54FF54FF54FF6140C
:10015000FEF9F54FF54FF54FF54FF54FF54FF54FCC
:10016000F54FF54FF54FF54FF54FF54FF54FF54F6F
:10017000F54FF54FF50FD001D001D001C801700047
:100180000000000000000000B801C801C801D94407
:10019000EB89F4CEF50EF50EF50EF50EF50EF50E17
:1001A000F50EF50EF50EF50EF50EF50EF50EF50E37
:1001B000F50EF50EF50EF50EF50EF50EF50EF50E27
:1001C000F50EF50EF50EF50EF50EF50EF50EF50E17
:1001D000FE97FF7CF50EF50EF50EF50EF50EF50EFD
:1001E000F50EF50EF50EF50EF50EF50EF50EF50EF7
:1001F000F50EF50EF50EF46DD001D001D001C80159
:10020000C0010000000000003000C801C801C801A2
:10021000E287EB89F46CF4CDF4CDF4CDF4CDF4CDDC
:10022000F4CDF4CDF4CDF4CDF4CDF4CDF4CDF4CDC6
:10023000F4CDF4CDF4CDF4CDF4CDF4CDF4CDF4CDB6
:10024000F4CDF4CDF4CDF4CDF4CDF4CDF4CDF4CDA6
:10025000F4CDFF1AFF9DF4CDF4CDF4CDF4CDF4CD63
:10026000F4CDF4CDF4CDF4CDF4CDF4CDF4CDF4CD86
:10027000F4CDF4CDF4CDF4CDEB4AD001D001D001D2
:10028000D001C8013000000000006800C801C801AA
:10029000D001EB89EB89EBCAF48CF48CF48CF48CF0
:1002A000F48CF48CF48CF48CF48CF48CF48CF48C4E
:1002B000F48CF48CF48CF48CF48CF48CF48CF48C3E
:1002C000F48CF48CF48CF48CF48CF48CF48CF48C2E
:1002D000F48CF48CFF9DFFDEF48CF48CF48CF48CA5
:1002E000F48CF48CF48CF48CF48CF48CF48CF48C0E
:1002F000F48CF48CF48CF48CF48CE1A5D001D00156
:10030000D001D001C8016800000000009001C801C0
:10031000C801D062EBA9EB89EB68F42BF44BF44BEA
:10032000F44BF44BF44BF44BF44BF44BF44BF44BD5
:10033000F44BF44BF44BF44BF44BF44BF44BF44BC5
:10034000F44BF44BF44BF44BF44BF44BF44BF44BB5
:10035000F44BF44BF46CFFFFFFFFF44BF44BF44B06
:10036000F44BF44BF44BF44BF44BF44BF44BF44B95
:10037000F44BF44BF44BF44BF44BEBCAD802D001E2
:10038000D001D001D001C801900100000000B001EF
:10039000C801C801D0A3EBA9EB89EB68EB68EC0AB4
:1003A000EC0AEC0AEC0AEC0AEC0AEC0AEC0AEC0A9D
:1003B000EC0AEC0AEC0AEC0AEC0AEC0AEC0AEC0A8D
:1003C000EC0AEC0AEC0AEC0AEC0AEC0AEC0AEC0A7D
:1003D000EC0AEC0AEC0AF4EEFFFFFFFFF42BEC0A48
:1003E000EC0AEC0AEC0AEC0AEC0AEC0AEC0AEC0A5D
:1003F000EC0AEC0AEC0AEC0AEC0AEC0AE144D8013B
:10040000D801D001D001D001C801B0010000000026
:10041000C001C801C801D8E3EBA9EB89EB68EB2761
:10042000EB48EBC9EBC9EBC9EBC9EBC9EBC9EBC9AD
:10043000EBC9EBC9EBC9EBC9EBC9EBC9EBC9EBC91C
:10044000EBC9EBC9EBC9EBC9EBC9EBC9EBC9EBC90C
:10045000EBC9EBC9EBC9EBC9F572FF1BFFFFF42B2E
:10046000EBC9EBC9EBC9EBC9EBC9EBC9EBC9EBC9EC
:10047000EBC9EBC9EBC9EBC9EBC9EBC9E206D80282
:10048000D801D801D001D001D001D001C0010000B5
:100490000000C801C801C801D8E3EBA9EB89EB68EB
:1004A000EB27E1E5EA26EB68EB68EB68EB68EB68C5
:1004B000EB68EB68EB68EB68EB68EB68EB68EB68A4
:1004C000EB68EB68EB68EB68EB68EB68EB68EB6894
:1004D000EB68EB68EB68EB68EB68F5F5FE36FFDF81
:1004E000F42CEB68EB68EB68EB68EB68EB68EB68A7
:1004F000EB68EB68EB68EB68EB68EB68EA26D80220
:10050000D802D802D801D001D001D001D001C80151
:1005100000000000C801C801C801D8E3EBA9EB89BD
:10052000EB68EB27E124D802E1C5EB27EB27EB27AB
:10053000EB27EB27EB27EB27EB27EB27EB27EB272B
:10054000EB27EB27EB27EB27EB27EB27EB27EB271B
:10055000EB27EB27EB27EB27EB27EB27FEB9F55231
:10056000FF9DF44DEB27EB27EB27EB27EB27EB2742
:10057000EB27EB27EB27EB27EB27EB27E1C5E00287
:10058000D802D802D802D801D001D001D001D001C0
:10059000C80100000000C001C801D001D8C3EBA908
:1005A000EB89EB68EB27D8A3D802E002E0E3EAA6E8
:1005B000EAE6EAE6EAE6EAE6EAE6EAE6EAE6EAE6BB
:1005C000EAE6F5B4F552EAE6EAE6EAE6EAE6EAE65B
:1005D000EAE6EAE6EAE6EAE6EAE6EAE6EAE6FF7DEF
:1005E000F42DFF3CF44DEAE6EAE6EAE6EAE6EAE65E
:1005F000EAE6EAE6EAE6EAE6EAE6EAA6E0E3E002B6
:10060000E002D802D802D802D801D001D001D0012E
:10061000D001C80100000000B001C801D001D083A2
:10062000EBA9EB89EB68EB27D842D802E002E002A5
:10063000E022E984EA85EAA5EAA5EAA5EAA5EAA511
:10064000EAA5EAC6FFBEFE58EAA5EAA5EAA5EAA51C
:10065000EAA5EAA5EAA5EAA5EAA5EAA5EAA5EB07BF
:10066000FFFFEB08FEDAF46EEAA5EAA5EAA5EAA523
:10067000EAA5EAA5EAA5EAA5EA85E984E022E0027E
:10068000E002E002D802D802D802D801D001D80195
:10069000D001D001B001000000009801C801D001D4
:1006A000D042EBA9EB89EB68EB27D822D802E00215
:1006B000E002E002E002E042E964EA44EA45EA4599
:1006C000EA45EA45F40DFFFFFF5CEA45EA45EA45E5
:1006D000EA45EA45EA45EA45EA45EA45EA45EA45A2
:1006E000EBABFF7DEA45FE78F48FEA45EA45EA4543
:1006F000EA45EA45EA45EA44E964E062E002E002EC
:10070000E002E002E002D802D802D802D801D80103
:10071000D801D001D0019801000000007000C8018C
:10072000D001D001EB89EB89EB68EB27D802D80226
:10073000E002E002E002E002E002E002E042E0E388
:10074000E9A4EA04EA04FE17F5F6FFFFEA25EA0445
:10075000EA04EA04EA04EA04EA04EA04EA04EA0429
:10076000EA04F48FFE78EA04FE16F4D1EA04EA04FF
:10077000EA04EA04E9A4E103E042E022E002E00244
:10078000E002E002E002E002D802D802D802D8017A
:10079000D802D801D001D001700000000000400054
:1007A000C801C801D001E287EB89EB68EB27D8428A
:1007B000D802E002E002E002E002E002E002E02211
:1007C000E022E042E062E945FFDFEA88FFBEEAA9F5
:1007D000E163E163E163E163E983E9A3E9A4E9A4F7
:1007E000E9A3E983F554F533E163F575F4D2E14308
:1007F000E123E0E3E082E062E042E022E022E00286
:10080000E002E002E002E002E002D802D802D802F0
:10081000D801E002D001D001D0014000000000006A
:100820001000C801C801D001D944EB89EB68EB275F
:10083000D8A3D802E002E002E002E002E002E00217
:10084000E022E022E042E042F38EFE9AE0A2FE794E
:10085000F36DE0E3E103E123E143E163E983E9834D
:10086000E983E983E163FE79F3EEE123F4D3F51341
:10087000E0C3E0A3E082E062E062E042E022E02246
:10088000E002E002E002E002E002E002D802D80268
:10089000D802D802E022D001D001C8011000000027
:1008A000000000009801C801D0E5D925F44DF44CB2
:1008B000F44DEAEBE209EA6BEA8BEA8BEB0DEB0D08
:1008C000F32EF38FF38FF3F0F431FEDBF3F0E082DD
:1008D000F534F492E0E3EAAAF491F491F4B1F4B1BE
:1008E000F4B1F4B1F4B1F4B1FFBEEAA9E103F471DB
:1008F000F575E0A3EA08F451F431F3CFF3AFF38FC9
:10090000EB0DEB0DEACCEA8BEA8BEA4AEA09E20945
:10091000E1A8E187E9C8E146D8A4D0019801000028
:100920000000000000005000C801DA4AE28BEC2F02
:10093000F511F531F491EB8FEBD0F411F411F47261
:10094000F493F493F514F514F535F596F576E90579
:10095000E082F3EFFDD7E0C3FE9AFE79FDD7FDF705
:10096000FDF7FDF7FDF7FDF7FDF7F595E944E0E349
:10097000F3EFFDD7E0A2F514FEDBF596F534F514A0
:10098000F4F4F493F493F452F411F411EBAFEB8F0D
:10099000EB8FEB0DEB4DEB6DE28BD9C8D001500026
:1009A00000000000000000000000B801D001D001EC
:1009B000D862EB48EB27EAC6D802D802E002E00290
:1009C000E002E002E002E002E022E022E042E04257
:1009D000E062E062EAABFF1CE965FFFFE9A6E10324
:1009E000E103E103E123E123E123E103E103E0E3A8
:1009F000E0E3F36DFE38E082FE18F38EE042E04261
:100A0000E022E022E002E002E002E002E002E00296
:100A1000D802D802E082E163E0C3D001D001C00176
:100A20000000000000000000000000006000D00195
:100A3000D001D001E1E5EB27EB07E0C3D802E002EB
:100A4000E002E002E002E002E002E002E022E02256
:100A5000E042E042E062E966FFFFF3CFFE9AE0C3C6
:100A6000E0E3E0E3E0E3E103E103E0E3E0E3E0E32C
:100A7000E0C3E0C3EAECFEBAE082FF1CEA8AE0428F
:100A8000E042E022E022E002E002E002E002E002D6
:100A9000E002D802E082E9A4E1C4D802D001D0018A
:100AA00060000000000000000000000000000800DE
:100AB000B801D001D001D042EB07EB07E1C5D80265
:100AC000D802E002E002E002E002E002E002E022FE
:100AD000E022E042E042E062E062FF9EFF1CF4514F
:100AE000E0A2E0C3E0C3E0C3E0E3E0E3E0C3E0C3CF
:100AF000E0C3E0C3E0A2EA8AFF1CE083FFFFE966EF
:100B0000E042E022E022E002E002E002E002E00255
:100B1000E002E002E082E9E4EA25D8E3D001D00176
:100B2000B801080000000000000000000000000004
:100B300000004800D001D001D001D944EB07EAC63B
:100B4000D842D802E002E002E002E002E002E00265
:100B5000E002E022E022E042E042E062FE59FFFFD4
:100B6000EA28E0A2E0A3E0A2E0A3E0C3E0C3E0C380
:100B7000E0A2E0A2E0A2E082E9E8FF9EE946FFFFF2
:100B8000E063E022E022E022E002E002E002E00294
:100B9000E002E002E0A2EA04EA45E1E5D801D00182
:100BA000D00148000000000000000000000000002C
:100BB0000000000000009001D001D001D001E2252A
:100BC000EAE6E184D802D802E002E002E002E002B4
:100BD000E002E002E002E022E022E042E042F5141E
:100BE000FF5DE083E082E082E082E0A2E0A2E0A29A
:100BF000E0A2E082E082E082E082E966FFFFEA4A6A
:100C0000FF1CE022E022E022E002E002E002E0023B
:100C1000E002E002E103EA45EA85EA86D862D00113
:100C2000D001900100000000000000000000000062
:100C300000000000000000001000C001D001D00141
:100C4000D842EA86EAA6D862D802E002E002E002D0
:100C5000E002E002E002E002E022E022E022E042E4
:100C6000EAECF431E062E062E062E082E082E0829D
:100C7000E082E082E082E062E062E062E8E4FFFFBE
:100C8000F3AFFE18E022E022E002E002E002E00220
:100C9000E002E002E184EA65EAA6EAE6E103D801BF
:100CA000D001C001100000000000000000000000A2
:100CB0000000000000000000000000003800D0012B
:100CC000D001D001D8A3EAA6E1C4D802D802E0023C
:100CD000E002E002E002E002E002E002E022E022C4
:100CE000E022E022E042E042E042E062E062E062D4
:100CF000E062E062E062E062E062E042E042E06323
:100D0000FFFFF535F514E022E002E002E002E00228
:100D1000E002E062E204EA86EAC6EB07E1C5D80138
:100D2000D001D001380000000000000000000000E9
:100D300000000000000000000000000000000000B3
:100D40006000D001D001D001D903EA86E0E3D802E7
:100D5000D802E002E002E002E002E002E002E0028B
:100D6000E002E022E022E022E042E042E042E04213
:100D7000E042E042E042E042E042E042E042E04263
:100D8000E022FFBEFEBBF3F0E002E002E002E00280
:100D9000E002E123EA85EAA6EAE7EB27E266D80269
:100DA000D801D00160000000000000000000000039
:100DB0000000000000000000000000000000000033
:100DC000000000008801D001D001D801E143E245D4
:100DD000D842D802E002E002E002E002E002E002D3
:100DE000E002E002E002E022E022E022E022E02253
:100DF000E022E042E042E042E042E042E022E02243
:100E0000E022E022FF3DFFDFEACCE002E002E00268
:100E1000E082E205EAA6EAE6EB07EB48EAA7D82279
:100E2000D801D0018801000000000000000000008F
:100E300000000000000000000000000000000000B2
:100E400000000000000000009801D001D001D8018E
:100E5000E143E1E4D802D802E002E002E002E0026D
:100E6000E002E002E002E002E002E002E022E02232
:100E7000E022E022E022E022E022E022E022E02262
:100E8000E022E022E002FEBBFFFFE9C8E002E04210
:100E9000E984EA86EAC6EB07EB48EB68EB08D84240
:100EA000D801D801980100000000000000000000F7
:100EB0000000000000000000000000000000000032
:100EC000000000000000000000000800A001D001A8
:100ED000D001D801E123E163D802D802E002E002A8
:100EE000E002E002E002E002E002E002E002E002F2
:100EF000E002E002E002E022E022E022E022E00262
:100F0000E002E002E002E002FE59FFFFE8E5E14412
:100F1000EA65EAC6EAE7EB27EB68EB89EB08D8421B
:100F2000D801D801A801080000000000000000005E
:100F300000000000000000000000000000000000B1
:100F40000000000000000000000000000000080099
:100F5000A001D001D801D801E103E103D802D802F1
:100F6000E002E002E002E002E002E002E002E00271
:100F7000E002E002E002E002E002E002E002E00261
:100F8000E002E002E002E002E002FDD7FFBEEA6517
:100F9000EAA6EAE6EB07EB48EB89EBA9EB28D84297
:100FA000D801D801A80108000000000000000000DE
:100FB0000000000000000000000000000000000031
:100FC0000000000000000000000000000000000021
:100FD00000000800A001D001D801D801E0C3E0C39F
:100FE000D802D802D802E002E002E002E002E00209
:100FF000E002E002E002E002E002E002E002E002E1
:10100000E002E002E002E002E082E964FE17FF1B7A
:10101000EAC6EB07EB48EB68EBA9EBEAEB08D84232
:10102000D801D801A0010800000000000000000065
:1010300000000000000000000000000000000000B0
:1010400000000000000000000000000000000000A0
:1010500000000000000008009001D001D801D80174
:10106000D862E082D802D802D802E002E002E002B0
:10107000E002E002E002E002E002E002E002E00260
:10108000E002E002E022E0C3E9C4EA45EA86F5F5C1
:10109000FE78EB27EB68EB89EBCAEC0AEAA8D802EA
:1010A000D801D801980108000000000000000000ED
:1010B0000000000000000000000000000000000030
:1010C0000000000000000000000000000000000020
:1010D0000000000000000000000000008001D001BE
:1010E000D801D801D822E062D802D802D802D802AA
:1010F000E002E002E002E002E002E002E002E002E0
:10110000E002E062E123EA04EA45EA85EAA6EAE7CA
:10111000F531F572EB89EBC9EBEAF40BE207D80283
:10112000D801D8018001000000000000000000008C
:1011300000000000000000000000000000000000AF
:10114000000000000000000000000000000000009F
:10115000000000000000000000000000000000008F
:101160006000D001D001D801D802D842D802D802FC
:10117000D802D802D802E002E002E002E002E04237
:10118000E0C3E984EA04EA25EA65EAA6EAE6EB07B1
:10119000EB48EB69EBA9EBEAEC0BEC0BE145D80172
:1011A000D801D8016000000000000000000000002D
:1011B000000000000000000000000000000000002F
:1011C000000000000000000000000000000000001F
:1011D000000000000000000000000000000000000F
:1011E000000000004000C801D001D801D801D82279
:1011F000D802D802D802D802E002E022E082E1233D
:10120000E983E9E4EA24EA65EA86EAC6EB07EB2823
:10121000EB68EBA9EBCAEC0BF42BEB8AD8A3D80153
:10122000D801C801400000000000000000000000DC
:1012300000000000000000000000000000000000AE
:10124000000000000000000000000000000000009E
:10125000000000000000000000000000000000008E
:1012600000000000000000002000B001D001D0010B
:10127000D801D801D802E002E022E0A2E103E16354
:10128000E9C4EA04EA45EA85EAA6EAE7EB27EB685F
:10129000EB89EBCAEBEAF42BF44CE2A8D822D80194
:1012A000D801B00120000000000000000000000094
:1012B000000000000000000000000000000000002E
:1012C000000000000000000000000000000000001E
:1012D000000000000000000000000000000000000E
:1012E000000000000000000000000000080088016D
:1012F000D001D001D001D801E042E0E3E143E9A40C
:10130000EA04EA25EA65EAA6EAE6EB07EB48EB8998
:10131000EBA9EBEAF42BF44CEC0CE165D801D80115
:10132000D001900108000000000000000000000053
:1013300000000000000000000000000000000000AD
:10134000000000000000000000000000000000009D
:10135000000000000000000000000000000000008D
:10136000000000000000000000000000000000007D
:1013700000005800C801D001D001D001D8A2E1C4BA
:10138000EA24EA65EA86EAC6EB07EB48EB68EBA9D4
:10139000EBCAEC0BF42BF46CEB29D862D001D00132
:1013A000D001580000000000000000000000000014
:1013B000000000000000000000000000000000002D
:1013C000000000000000000000000000000000001D
:1013D000000000000000000000000000000000000D
:1013E00000000000000000000000000000000000FD
:1013F0000000000000002000A801D001D001D001B1
:10140000D862E205EAC6EAE7EB27EB68EB89EBCAAC
:10141000EBEAF42BF44CEC2CE1A6D001D001D00186
:10142000A8012000000000000000000000000000F3
:1014300000000000000000000000000000000000AC
:10144000000000000000000000000000000000009C
:10145000000000000000000000000000000000008C
:10146000000000000000000000000000000000007C
:101470000000000000000000000000007001D0012A
:10148000D001D001D001E184EB28EB89EBA9EBEA94
:10149000F42BF44CF46DE2C9D062D001D001D0013C
:1014A00070010000000000000000000000000000CB
:1014B000000000000000000000000000000000002C
:1014C000000000000000000000000000000000001C
:1014D000000000000000000000000000000000000C
:1014E00000000000000000000000000000000000FC
:1014F00000000000000000000000000000000000EC
:101500003000B001D001D001D001D8A3EB28EC0B02
:10151000F44CF46CEBABD904D001D001D001B00194
:10152000300000000000000000000000000000008B
:1015300000000000000000000000000000000000AB
:10154000000000000000000000000000000000009B
:10155000000000000000000000000000000000008B
:10156000000000000000000000000000000000007B
:10157000000000000000000000000000000000006B
:101580000000000008007000C801D001D001D001A7
:10159000D965E2C8D985D001D001D001C801700059
:1015A0000800000000000000000000000000000033
:1015B000000000000000000000000000000000002B
:1015C000000000000000000000000000000000001B
:1015D000000000000000000000000000000000000B
:1015E00000000000000000000000000000000000FB
:1015F00000000000000000000000000000000000EB
:10160000000000000000000000002800A801C80140
:10161000C801C801C801C801C801C801A801280043
:1016200000000000000000000000000000000000BA
:1016300000000000000000000000000000000000AA
:10164000000000000000000000000000000000009A
:10165000000000000000000000000000000000008A
:10166000000000000000000000000000000000007A
:10167000000000000000000000000000000000006A
:10168000000000000000000000000000000000005A
:101690006000C001C801C801C801C00160000000AD
:1016A000000000000000000000000000000000003A
:1016B000000000000000000000000000000000002A
:1016C000000000000000000000000000000000001A
:1016D000000000000000000000000000000000000A
:1016E00000000000000000000000000000000000FA
:1016F00000000000000000000000000000000000EA
:1017000000000000000000000000000000000000D9
:101710000000000018008001C001800118000000D6
:1017200000000000000000000000000000000000B9
:1017300000000000000000000000000000000000A9
:101740000000000000000000000000000000000099
:101750000000000000000000000000000000000089
:101760000000000000000000000000000000000079
:101770000000000000000000000000000000000069
:101780000000000000000000000000000000000059
:101790000000000000000000000000000000000049
:1017A0000000000000000000000000000000000039
:1017B0000000000000000000000000000000000029
:1017C0000000000000000000000000000000000019
:1017D0000000000000000000000000000000000009
:1017E00000000000000000000000000000000000F9
:1017F00000000000000000000000000000000000E9
:101800000000000000000000086129864A8A634D3C
:1018100073CF84518471847184717C306BAE5B0CA6
:10182000424929651082000000000000000000000D
:1018300000000000000000000000000000000000A8
:101840000000000000000000000000000000000098
:101850000000000000000000000000000000000088
:101860000000000000000000000000000000000078
:101870000000000000000000000000000000000068
:101880000000088242286BAE847184718471847177
:101890008471847184718471847184717C3073CF9C
:1018A00073EF7C107C107BEF6B8E630C422818E387
:1018B0000000000000000000000000000000000028
:1018C0000000000000000000000000000000000018
:1018D0000000000000000000000000000000000008
:1018E00000000000000000000000000000000000F8
:1018F000000000000000000000000000000018C30D
:101900005B0B8471847184718471847184718471BE
:10191000847184717C3073EF8C92BDF7D6BAD6BADD
:10192000DEDBDEDBDEFBDEFBE71CE71CE73CE73C47
:10193000D69A94B252AA086100000000000000008C
:101940000000000000000000000000000000000097
:101950000000000000000000000000000000000087
:101960000000000000000000000000000000000077
:101970000000000000000000000010825B0C847179
:1019800084718471847184718471847184718471AF
:1019900073CF94B2C638CE59CE79CE79D69AD69A2C
:1019A000D6BAD6BAD6DBDEDBDEFBDEFBDF1CE71CFD
:1019B000E73CE73CE73CE71C9492318600000000DE
:1019C0000000000000000000000000000000000017
:1019D0000000000000000000000000000000000007
:1019E00000000000000000000000000000000000F7
:1019F00000000000000000003A08845184718471E6
:101A000084718471847184718471847173CFA534FD
:101A1000BE18C618C638C638C659CE59CE79CE7942
:101A2000CE9AD69AD6BAD6BAD6DADEDBDEFBDEFBA3
:101A3000DEFBE71CE71CE73CE73CEF5DA5342965CE
:101A40000000000000000000000000000000000096
:101A50000000000000000000000000000000000086
:101A60000000000000000000000000000000000076
:101A7000000000000881636D847184718471847139
:101A8000847184718471847173CF94B2B5D7BDD7DA
:101A9000BDF7BDF7BE18C618B5B68C515AEB39E77D
:101AA00029451082086118E35B0C8C928C929CF3A0
:101AB000BDD7DEFBDEFBE71CE71CE73CE73CE73C71
:101AC0008430084100000000000000000000000019
